:100000000C9434000C9451000C9451000C94510049
:100010000C9451000C9451000C9451000C9451001C
:100020000C9451000C9451000C9451000C9451000C
:100030000C9451000C9451000C9424020C94510027
:100040000C9451000C9451000C9453010C945100E9
:100050000C9451000C9451000C9451000C945100DC
:100060000C9451000C94510011241FBECFEFD8E026
:10007000DEBFCDBF11E0A0E0B1E0EAE9F4E002C0EC
:1000800005900D92A236B107D9F721E0A2E6B1E0C2
:1000900001C01D92AB36B207E1F70E9476000C94C6
:1000A0004B020C940000EEE7F0E0808188608083D2
:1000B000EAE7F0E0808187688083ECE7F0E0808108
:1000C000836680830895F894EAE7F0E08081806495
:1000D000808380917A0084FFFCCFEAE7F0E08081A2
:1000E00080618083789480917900089584B18662DC
:1000F00084B90E9434010E94F2010E94FB010E9417
:10010000530080E890E0909389008093880090935A
:100110008B0080938A0080E80E94480280E091E092
:100120000E941501809162018823E1F30E948C01F5
:10013000C82F8130B9F42FEF81EE94E02150804038
:100140009040E1F700C000000E946300D82F0E9499
:100150008F018D2F0E9448021092620180E091E091
:100160000E941501C230D1F42FEF81EE94E02150AE
:1001700080409040E1F700C000000E946300D82F4B
:100180000E948F018D2F90E090938B0080938A00C6
:100190001092620180E091E00E941501C33011F6D7
:1001A0002FEF81EE94E0215080409040E1F700C0B5
:1001B00000000E946300C82F0E948F018C2F90E0E6
:1001C00090938900809388001092620180E091E012
:1001D0000E941501A7CF1092C10096E09093C20033
:1001E0001092C5008093C4000895E1ECF0E0808196
:1001F000886080830895E1ECF0E080818F7D8083CA
:100200000895E1ECF0E08081806180830895E1EC65
:10021000F0E080818068808308958091C00085FF30
:10022000FCCF08958093C6000895EF92FF920F933C
:100230001F93CF937C01C0E007C00E940D01F8011D
:1002400080810E941201CF5F87010C0F111DF80100
:1002500080818111F2CFCF911F910F91FF90EF908C
:1002600008958091C600089587E60E94EB000E94E1
:10027000F5000E9401010E94070178940895809181
:100280006901823541F0873441F0823441F0833591
:1002900041F484E0089581E0089582E0089583E0C8
:1002A000089580E008951F920F920FB60F921124C7
:1002B0002F933F934F935F936F937F938F939F936E
:1002C000AF93BF93EF93FF930E94FB000E94310115
:1002D000809367018D3019F08093690103C08AE033
:1002E000809369010E943F0180936801882319F07F
:1002F00081E080936201FF91EF91BF91AF919F9157
:100300008F917F916F915F914F913F912F910F90BE
:100310000FBE0F901F901895809168010895CF939C
:10032000DF93D82F1092640189E2D89F812D112488
:1003300082958F7080936301882351F081E08093D0
:1003400064010E940D0180916301805D0E94120191
:10035000C9E2DC9FC12D1124C295CF7084E6C89FED
:10036000D0191124CD2F8DECD89F812D1124869585
:100370008695869580936301882341F00E940D0144
:1003800080916301805D0E9412010DC08091640123
:10039000813049F40E940D0180916301805D0E94CB
:1003A0001201109264018DECC89F812D1124869555
:1003B00086958695880F982F990F990F890FC81BDE
:1003C000C09363010E940D0180916301805D0E94D2
:1003D00012010E940D018EE591E00E941501DF914E
:1003E000CF91089582E484BD85E085BD82E080934D
:1003F0006E007894089581EF809380008DE0809363
:100400008100089580916501909166010196909315
:100410006601809365018F3F910520F0109266017F
:100420001092650180915D0190E02091650130910D
:1004300066012817390720F485B1806285B90895CF
:1004400085B18F7D85B908951F920F920FB60F92D7
:1004500011242F933F934F935F936F937F938F93C9
:100460009F93AF93BF93EF93FF930E940202FF917C
:10047000EF91BF91AF919F918F917F916F915F911C
:100480004F913F912F910F900FBE0F901F90189595
:0A04900080935D010895F894FFCFFA
:10049A00496E74726F64757A63612052207061725A
:1004AA00612063616D62696172206C6120696E749A
:1004BA00656E736964616420646520726F6A6F2C6B
:1004CA0020472070617261206C612064656C20761F
:1004DA00657264652C20422070617261206C612013
:1004EA0064656C20617A756C2E200A0D00800D0AF5
:0204FA00000000
:00000001FF
